{
  "_format": "hh-sol-artifact-1",
  "contractName": "AgentRegistry",
  "sourceName": "contracts/core/AgentRegistry.sol",
  "abi": [
    {
      "inputs": [],
      "stateMutability": "nonpayable",
      "type": "constructor"
    },
    {
      "inputs": [
        {
          "internalType": "address",
          "name": "owner",
          "type": "address"
        }
      ],
      "name": "OwnableInvalidOwner",
      "type": "error"
    },
    {
      "inputs": [
        {
          "internalType": "address",
          "name": "account",
          "type": "address"
        }
      ],
      "name": "OwnableUnauthorizedAccount",
      "type": "error"
    },
    {
      "anonymous": false,
      "inputs": [
        {
          "indexed": true,
          "internalType": "bytes32",
          "name": "agentId",
          "type": "bytes32"
        }
      ],
      "name": "AgentDeactivated",
      "type": "event"
    },
    {
      "anonymous": false,
      "inputs": [
        {
          "indexed": true,
          "internalType": "bytes32",
          "name": "agentId",
          "type": "bytes32"
        },
        {
          "indexed": true,
          "internalType": "address",
          "name": "wallet",
          "type": "address"
        },
        {
          "indexed": false,
          "internalType": "string",
          "name": "name",
          "type": "string"
        }
      ],
      "name": "AgentRegistered",
      "type": "event"
    },
    {
      "anonymous": false,
      "inputs": [
        {
          "indexed": true,
          "internalType": "address",
          "name": "previousOwner",
          "type": "address"
        },
        {
          "indexed": true,
          "internalType": "address",
          "name": "newOwner",
          "type": "address"
        }
      ],
      "name": "OwnershipTransferred",
      "type": "event"
    },
    {
      "anonymous": false,
      "inputs": [
        {
          "indexed": true,
          "internalType": "bytes32",
          "name": "agentId",
          "type": "bytes32"
        }
      ],
      "name": "ServicesUpdated",
      "type": "event"
    },
    {
      "inputs": [],
      "name": "deactivateAgent",
      "outputs": [],
      "stateMutability": "nonpayable",
      "type": "function"
    },
    {
      "inputs": [
        {
          "internalType": "bytes32",
          "name": "agentId",
          "type": "bytes32"
        }
      ],
      "name": "getAgent",
      "outputs": [
        {
          "components": [
            {
              "internalType": "address",
              "name": "wallet",
              "type": "address"
            },
            {
              "internalType": "bytes32",
              "name": "agentId",
              "type": "bytes32"
            },
            {
              "internalType": "string",
              "name": "name",
              "type": "string"
            },
            {
              "internalType": "string[]",
              "name": "services",
              "type": "string[]"
            },
            {
              "internalType": "bool",
              "name": "active",
              "type": "bool"
            },
            {
              "internalType": "uint256",
              "name": "registeredAt",
              "type": "uint256"
            }
          ],
          "internalType": "struct AgentRegistry.AgentProfile",
          "name": "",
          "type": "tuple"
        }
      ],
      "stateMutability": "view",
      "type": "function"
    },
    {
      "inputs": [
        {
          "internalType": "address",
          "name": "wallet",
          "type": "address"
        }
      ],
      "name": "getAgentByWallet",
      "outputs": [
        {
          "internalType": "bytes32",
          "name": "",
          "type": "bytes32"
        }
      ],
      "stateMutability": "view",
      "type": "function"
    },
    {
      "inputs": [],
      "name": "getAgentCount",
      "outputs": [
        {
          "internalType": "uint256",
          "name": "",
          "type": "uint256"
        }
      ],
      "stateMutability": "view",
      "type": "function"
    },
    {
      "inputs": [],
      "name": "getAllAgentIds",
      "outputs": [
        {
          "internalType": "bytes32[]",
          "name": "",
          "type": "bytes32[]"
        }
      ],
      "stateMutability": "view",
      "type": "function"
    },
    {
      "inputs": [
        {
          "internalType": "bytes32",
          "name": "agentId",
          "type": "bytes32"
        }
      ],
      "name": "isActiveAgent",
      "outputs": [
        {
          "internalType": "bool",
          "name": "",
          "type": "bool"
        }
      ],
      "stateMutability": "view",
      "type": "function"
    },
    {
      "inputs": [
        {
          "internalType": "bytes32",
          "name": "agentId",
          "type": "bytes32"
        }
      ],
      "name": "isRegistered",
      "outputs": [
        {
          "internalType": "bool",
          "name": "",
          "type": "bool"
        }
      ],
      "stateMutability": "view",
      "type": "function"
    },
    {
      "inputs": [],
      "name": "owner",
      "outputs": [
        {
          "internalType": "address",
          "name": "",
          "type": "address"
        }
      ],
      "stateMutability": "view",
      "type": "function"
    },
    {
      "inputs": [
        {
          "internalType": "bytes32",
          "name": "agentId",
          "type": "bytes32"
        },
        {
          "internalType": "string",
          "name": "name",
          "type": "string"
        },
        {
          "internalType": "string[]",
          "name": "services",
          "type": "string[]"
        }
      ],
      "name": "registerAgent",
      "outputs": [],
      "stateMutability": "nonpayable",
      "type": "function"
    },
    {
      "inputs": [],
      "name": "renounceOwnership",
      "outputs": [],
      "stateMutability": "nonpayable",
      "type": "function"
    },
    {
      "inputs": [
        {
          "internalType": "address",
          "name": "newOwner",
          "type": "address"
        }
      ],
      "name": "transferOwnership",
      "outputs": [],
      "stateMutability": "nonpayable",
      "type": "function"
    },
    {
      "inputs": [
        {
          "internalType": "string[]",
          "name": "services",
          "type": "string[]"
        }
      ],
      "name": "updateServices",
      "outputs": [],
      "stateMutability": "nonpayable",
      "type": "function"
    }
  ],
  "bytecode": "0x6080806040523461007a5733156100645760008054336001600160a01b03198216811783556040519290916001600160a01b0316907f8be0079c531659141344cd1fd0a4f28419497f9722a3daafe3b4186f6b6457e09080a3610fd390816100808239f35b631e4fbdf760e01b815260006004820152602490fd5b600080fdfe608080604052600436101561001357600080fd5b60003560e01c908163084a5a4814610726575080631136a5951461067057806327258b221461063a578063715018a6146105e157806385f8dd8d146105a35780638da5cb5b1461057a57806391cab63e1461055c5780639a4fbf5b146104f1578063a6c2af0114610342578063b2a4493214610188578063dd359aaa146101385763f2fde38b146100a357600080fd5b34610133576020366003190112610133576004356001600160a01b0381811691829003610133576100d2610f71565b811561011a57600054826bffffffffffffffffffffffff60a01b821617600055167f8be0079c531659141344cd1fd0a4f28419497f9722a3daafe3b4186f6b6457e0600080a3005b604051631e4fbdf760e01b815260006004820152602490fd5b600080fd5b346101335760203660031901126101335760043560005260016020526020604060002060018060a01b0381541615159081610179575b506040519015158152f35b60ff915060040154168261016e565b34610133576020806003193601126101335767ffffffffffffffff600435818111610133576101bc83913690600401610c5a565b9190913360005260028252604060002054936101d9851515610e91565b846000526001928381526003946003604060002001926101f98585610e00565b600093845282842091805b86861061023357897f43261cd1b6cef1842e10c8be01007e83829350812f5c22816b9937fbff7ea735600080a2005b8035601e1983360301811215610133578201908135848111610133578036038784011361013357899181610272899361026c8a54610d68565b8a610db9565b6000601f82116001146102c2579080846102a69387986000936102b5575b5050508160011b916000199060031b1c19161790565b87555b01940195019492610204565b0101359050843880610290565b948d95601f198316968a600052856000209760005b81811061031b575087989285949289968993106102fe575b5050505050811b0187556102a9565b60f886600019921b161c19920101351690558f808f8187916102ef565b949790939598878094809994508801013581550195019201918e8b959794928f97946102d7565b346101335760208060031936011261013357600060a060405161036481610ccb565b828152828482015260606040820152606080820152826080820152015260043560005260019060018152604060002090604051916103a183610ccb565b80546001600160a01b0390811684526001820154838501908152929091906103cb60028301610ece565b6040860190815260038301948554886103e382610d50565b976103f1604051998a610ce7565b8289526000908152858120868a015b8483106104d05750505050509061045b9160608801968752600560ff6004870154169560808a01961515875201549560a0890196875260405198858a525116848901525160408801525160c0606088015260e0870190610c8b565b935193601f19918287830301608088015285519182815281810182808560051b8401019801946000925b8584106104a2578751151560a08c0152885160c08c01528a8a038bf35b9091929394959885806104bf838f94868891030188528d51610c8b565b9b0194019401929594939190610485565b838881926104e0859e9b9e610ece565b815201920192019190999699610400565b346101335760003660031901126101335733600052600260205260406000205461051c811515610e91565b806000526001602052600460406000200160ff1981541690557f83fa9a5555770ebb043d9ef83dd2d496875b8a91e0b595e5ce06520ba75187ad600080a2005b34610133576000366003190112610133576020600354604051908152f35b34610133576000366003190112610133576000546040516001600160a01b039091168152602090f35b34610133576020366003190112610133576004356001600160a01b038116908190036101335760005260026020526020604060002054604051908152f35b34610133576000366003190112610133576105fa610f71565b600080546001600160a01b0319811682556001600160a01b03167f8be0079c531659141344cd1fd0a4f28419497f9722a3daafe3b4186f6b6457e08280a3005b34610133576020366003190112610133576004356000526001602052602060018060a01b03604060002054161515604051908152f35b3461013357600036600319011261013357604051806003548083526020809301809160036000527fc2575a0e9e593c00f959f8c92f12db2869c3395a3b0502d05e2516446f71f85b9060005b868282106107125786866106d282880383610ce7565b604051928392818401908285525180915260408401929160005b8281106106fb57505050500390f35b8351855286955093810193928101926001016106ec565b8354855290930192600192830192016106bc565b346101335760603660031901126101335760243567ffffffffffffffff811161013357366023820112156101335767ffffffffffffffff816004013511610133573660248260040135830101116101335760443567ffffffffffffffff811161013357610797903690600401610c5a565b9092600435600052600160205260018060a01b0360406000205416610c185750336000526002602052604060002054610bd357604051926107d784610ccb565b33845260043560208501526107f436846004013560248601610d09565b604085015261080282610d50565b916108106040519384610ce7565b80835260208301368260051b8401116101335782905b8260051b84018210610b9357505050506060830152600160808301524260a08301526004356000526001602052604060002060018060a01b038351166bffffffffffffffffffffffff60a01b82541617815560208301516001820155604083015192835167ffffffffffffffff8111610a19576108b3816108aa6002860154610d68565b60028601610db9565b6020601f8211600114610b245781906108e693949596600092610b19575b50508160011b916000199060031b1c19161790565b60028301555b60038201606082015160208151916109048385610e00565b01916000526020600020916000905b828210610a2f578686600560a088600484016080820151151560ff801983541691161790550151910155336000526002602052600435604060002055600354600160401b811015610a19576001810180600355811015610a03576003600052600435907fc2575a0e9e593c00f959f8c92f12db2869c3395a3b0502d05e2516446f71f85b01556040519060208252806004013560208301528060040135602482016040840137600060408260040135840101527f186c9e760261cf9d36dfc9a09ca598dbff789d7d4201868118b92d46e56dac80339260408160043594601f8019916004013501168101030190a3005b634e487b7160e01b600052603260045260246000fd5b634e487b7160e01b600052604160045260246000fd5b805180519067ffffffffffffffff8211610a1957610a5782610a518854610d68565b88610db9565b602090601f8311600114610aa95792610a8f83600195946020948796600092610a9e5750508160011b916000199060031b1c19161790565b87555b01940191019092610913565b015190508d806108d1565b908660005260206000209160005b601f1985168110610b01575083602093600196938796938794601f19811610610ae8575b505050811b018755610a92565b015160001960f88460031b161c191690558c8080610adb565b91926020600181928685015181550194019201610ab7565b0151905086806108d1565b6002840160005260206000209060005b601f1984168110610b7b575060019394959683601f19811610610b62575b505050811b0160028301556108ec565b015160001960f88460031b161c19169055858080610b52565b9091602060018192858b015181550193019101610b34565b813567ffffffffffffffff81116101335736601f828701011215610133576020918291610bc890369088018035908501610d09565b815201910190610826565b60405162461bcd60e51b815260206004820152601960248201527f57616c6c657420616c72656164792072656769737465726564000000000000006044820152606490fd5b62461bcd60e51b815260206004820152601a60248201527f4167656e74496420616c726561647920726567697374657265640000000000006044820152606490fd5b9181601f840112156101335782359167ffffffffffffffff8311610133576020808501948460051b01011161013357565b919082519283825260005b848110610cb7575050826000602080949584010152601f8019910116010190565b602081830181015184830182015201610c96565b60c0810190811067ffffffffffffffff821117610a1957604052565b90601f8019910116810190811067ffffffffffffffff821117610a1957604052565b92919267ffffffffffffffff8211610a195760405191610d33601f8201601f191660200184610ce7565b829481845281830111610133578281602093846000960137010152565b67ffffffffffffffff8111610a195760051b60200190565b90600182811c92168015610d98575b6020831014610d8257565b634e487b7160e01b600052602260045260246000fd5b91607f1691610d77565b818110610dad575050565b60008155600101610da2565b9190601f8111610dc857505050565b610df4926000526020600020906020601f840160051c83019310610df6575b601f0160051c0190610da2565b565b9091508190610de7565b600160401b8211610a1957805491808255828110610e1d57505050565b60009182526020906020832093840193015b838110610e3c5750505050565b8083610e4a60019354610d68565b80610e58575b505001610e2f565b601f8082118514610e6f57505081555b8338610e50565b610e8890848452868420920160051c8201858301610da2565b81835555610e68565b15610e9857565b60405162461bcd60e51b815260206004820152600e60248201526d139bdd081c9959da5cdd195c995960921b6044820152606490fd5b90604051918260008254610ee181610d68565b90818452602094600191600181169081600014610f4f5750600114610f10575b505050610df492500383610ce7565b600090815285812095935091905b818310610f37575050610df49350820101388080610f01565b85548884018501529485019487945091830191610f1e565b92505050610df494925060ff191682840152151560051b820101388080610f01565b6000546001600160a01b03163303610f8557565b60405163118cdaa760e01b8152336004820152602490fdfea26469706673582212200ca9c2c8556266458160d7fe9ae53da8c589e7af492e0665481e9fe1353b321464736f6c63430008180033",
  "linkReferences": {},
  "deployedLinkReferences": {}
}