{
  "_format": "hh-sol-artifact-1",
  "contractName": "PaymentRouter",
  "sourceName": "contracts/core/PaymentRouter.sol",
  "abi": [
    {
      "inputs": [
        {
          "internalType": "address",
          "name": "_registry",
          "type": "address"
        }
      ],
      "stateMutability": "nonpayable",
      "type": "constructor"
    },
    {
      "inputs": [
        {
          "internalType": "address",
          "name": "owner",
          "type": "address"
        }
      ],
      "name": "OwnableInvalidOwner",
      "type": "error"
    },
    {
      "inputs": [
        {
          "internalType": "address",
          "name": "account",
          "type": "address"
        }
      ],
      "name": "OwnableUnauthorizedAccount",
      "type": "error"
    },
    {
      "inputs": [],
      "name": "ReentrancyGuardReentrantCall",
      "type": "error"
    },
    {
      "anonymous": false,
      "inputs": [
        {
          "indexed": true,
          "internalType": "bytes32",
          "name": "from",
          "type": "bytes32"
        },
        {
          "indexed": true,
          "internalType": "bytes32",
          "name": "to",
          "type": "bytes32"
        },
        {
          "indexed": false,
          "internalType": "address",
          "name": "token",
          "type": "address"
        },
        {
          "indexed": false,
          "internalType": "uint256",
          "name": "amount",
          "type": "uint256"
        },
        {
          "indexed": false,
          "internalType": "uint256",
          "name": "fee",
          "type": "uint256"
        }
      ],
      "name": "DirectPayment",
      "type": "event"
    },
    {
      "anonymous": false,
      "inputs": [
        {
          "indexed": true,
          "internalType": "bytes32",
          "name": "escrowId",
          "type": "bytes32"
        }
      ],
      "name": "EscrowCancelled",
      "type": "event"
    },
    {
      "anonymous": false,
      "inputs": [
        {
          "indexed": true,
          "internalType": "bytes32",
          "name": "escrowId",
          "type": "bytes32"
        },
        {
          "indexed": true,
          "internalType": "bytes32",
          "name": "payerId",
          "type": "bytes32"
        },
        {
          "indexed": true,
          "internalType": "bytes32",
          "name": "payeeId",
          "type": "bytes32"
        },
        {
          "indexed": false,
          "internalType": "uint256",
          "name": "amount",
          "type": "uint256"
        }
      ],
      "name": "EscrowCreated",
      "type": "event"
    },
    {
      "anonymous": false,
      "inputs": [
        {
          "indexed": true,
          "internalType": "bytes32",
          "name": "escrowId",
          "type": "bytes32"
        },
        {
          "indexed": false,
          "internalType": "uint256",
          "name": "amount",
          "type": "uint256"
        },
        {
          "indexed": false,
          "internalType": "uint256",
          "name": "fee",
          "type": "uint256"
        }
      ],
      "name": "EscrowReleased",
      "type": "event"
    },
    {
      "anonymous": false,
      "inputs": [
        {
          "indexed": true,
          "internalType": "address",
          "name": "previousOwner",
          "type": "address"
        },
        {
          "indexed": true,
          "internalType": "address",
          "name": "newOwner",
          "type": "address"
        }
      ],
      "name": "OwnershipTransferred",
      "type": "event"
    },
    {
      "inputs": [
        {
          "internalType": "bytes32",
          "name": "escrowId",
          "type": "bytes32"
        }
      ],
      "name": "cancelEscrow",
      "outputs": [],
      "stateMutability": "nonpayable",
      "type": "function"
    },
    {
      "inputs": [
        {
          "internalType": "bytes32",
          "name": "payeeAgentId",
          "type": "bytes32"
        },
        {
          "internalType": "address",
          "name": "token",
          "type": "address"
        },
        {
          "internalType": "uint256",
          "name": "amount",
          "type": "uint256"
        },
        {
          "internalType": "bytes32",
          "name": "jobId",
          "type": "bytes32"
        },
        {
          "internalType": "uint256",
          "name": "deadline",
          "type": "uint256"
        }
      ],
      "name": "createEscrow",
      "outputs": [
        {
          "internalType": "bytes32",
          "name": "",
          "type": "bytes32"
        }
      ],
      "stateMutability": "payable",
      "type": "function"
    },
    {
      "inputs": [],
      "name": "feeReceiver",
      "outputs": [
        {
          "internalType": "address",
          "name": "",
          "type": "address"
        }
      ],
      "stateMutability": "view",
      "type": "function"
    },
    {
      "inputs": [
        {
          "internalType": "bytes32",
          "name": "escrowId",
          "type": "bytes32"
        }
      ],
      "name": "getEscrow",
      "outputs": [
        {
          "components": [
            {
              "internalType": "bytes32",
              "name": "payerId",
              "type": "bytes32"
            },
            {
              "internalType": "bytes32",
              "name": "payeeId",
              "type": "bytes32"
            },
            {
              "internalType": "uint256",
              "name": "amount",
              "type": "uint256"
            },
            {
              "internalType": "address",
              "name": "token",
              "type": "address"
            },
            {
              "internalType": "bytes32",
              "name": "jobId",
              "type": "bytes32"
            },
            {
              "internalType": "uint256",
              "name": "deadline",
              "type": "uint256"
            },
            {
              "internalType": "bool",
              "name": "released",
              "type": "bool"
            },
            {
              "internalType": "bool",
              "name": "cancelled",
              "type": "bool"
            },
            {
              "internalType": "uint256",
              "name": "createdAt",
              "type": "uint256"
            }
          ],
          "internalType": "struct PaymentRouter.Escrow",
          "name": "",
          "type": "tuple"
        }
      ],
      "stateMutability": "view",
      "type": "function"
    },
    {
      "inputs": [],
      "name": "owner",
      "outputs": [
        {
          "internalType": "address",
          "name": "",
          "type": "address"
        }
      ],
      "stateMutability": "view",
      "type": "function"
    },
    {
      "inputs": [
        {
          "internalType": "bytes32",
          "name": "recipientAgentId",
          "type": "bytes32"
        },
        {
          "internalType": "address",
          "name": "token",
          "type": "address"
        },
        {
          "internalType": "uint256",
          "name": "amount",
          "type": "uint256"
        }
      ],
      "name": "payDirect",
      "outputs": [],
      "stateMutability": "payable",
      "type": "function"
    },
    {
      "inputs": [],
      "name": "protocolFeeBps",
      "outputs": [
        {
          "internalType": "uint256",
          "name": "",
          "type": "uint256"
        }
      ],
      "stateMutability": "view",
      "type": "function"
    },
    {
      "inputs": [],
      "name": "registry",
      "outputs": [
        {
          "internalType": "contract IAgentRegistry",
          "name": "",
          "type": "address"
        }
      ],
      "stateMutability": "view",
      "type": "function"
    },
    {
      "inputs": [
        {
          "internalType": "bytes32",
          "name": "escrowId",
          "type": "bytes32"
        }
      ],
      "name": "releaseEscrow",
      "outputs": [],
      "stateMutability": "nonpayable",
      "type": "function"
    },
    {
      "inputs": [],
      "name": "renounceOwnership",
      "outputs": [],
      "stateMutability": "nonpayable",
      "type": "function"
    },
    {
      "inputs": [
        {
          "internalType": "address",
          "name": "receiver",
          "type": "address"
        }
      ],
      "name": "setFeeReceiver",
      "outputs": [],
      "stateMutability": "nonpayable",
      "type": "function"
    },
    {
      "inputs": [
        {
          "internalType": "uint256",
          "name": "feeBps",
          "type": "uint256"
        }
      ],
      "name": "setProtocolFee",
      "outputs": [],
      "stateMutability": "nonpayable",
      "type": "function"
    },
    {
      "inputs": [
        {
          "internalType": "address",
          "name": "newOwner",
          "type": "address"
        }
      ],
      "name": "transferOwnership",
      "outputs": [],
      "stateMutability": "nonpayable",
      "type": "function"
    }
  ],
  "bytecode": "0x6080346100fb57601f611a8b38819003918201601f19168301916001600160401b03831184841017610100578084926020946040528339810103126100fb57516001600160a01b0390818116908190036100fb5760017f9b779b17422d0df92223018b32b4d1fa46e071723d6817e2486d003becc55f005533156100e2576000549060018060a01b0319913383821617600055604051933391167f8be0079c531659141344cd1fd0a4f28419497f9722a3daafe3b4186f6b6457e0600080a381600354161760035560326004553390600554161760055561197490816101178239f35b604051631e4fbdf760e01b815260006004820152602490fd5b600080fd5b634e487b7160e01b600052604160045260246000fdfe6040608081526004908136101561001557600080fd5b600091823560e01c80631df043241461103b57806335659fb81461101e578063435ab80414610b05578063715018a614610aa8578063787dce3d14610a4b5780637b10399914610a225780638da5cb5b146109fa578063b3f00674146109d1578063bf89fc61146105e4578063ee5e3b81146102e3578063efdcd9741461025e578063f023b811146101395763f2fde38b146100b057600080fd5b34610135576020366003190112610135576100c9611533565b906100d26118f2565b6001600160a01b0391821692831561011f57505082546001600160a01b0319811683178455167f8be0079c531659141344cd1fd0a4f28419497f9722a3daafe3b4186f6b6457e08380a380f35b51631e4fbdf760e01b8152908101849052602490fd5b8280fd5b50346101355760203660031901126101355791610120928280519261015d84611549565b80845280602085015280828501528060608501528060808501528060a08501528060c08501528060e08501528061010080950152823581526001602052209060ff84519283926101ac84611549565b8154968785526001830154916020860192835260028401549180870192835260018060a01b039283600387015416926060890193845286015494608089019586528a600760058901549860a08c01998a528a60e060068301549d8e60c082019e8f911615159052019c60081c1615158c5201549a01998a5282519b8c525160208c015251908a0152511660608801525160808701525160a086015251151560c085015251151560e08401525190820152f35b503461013557602036600319011261013557610278611533565b6102806118f2565b6001600160a01b03169182156102ad5750506bffffffffffffffffffffffff60a01b600554161760055580f35b906020606492519162461bcd60e51b8352820152601060248201526f24b73b30b634b2103932b1b2b4bb32b960811b6044820152fd5b5034610135576020806003193601126105e0578135926103016118c2565b83855260018252808520600281019081549061031e82151561183e565b600681019182549160ff831615806105d1575b61033a9061187d565b600581015442106105975760035486516385f8dd8d60e01b815233818b01526001600160a01b0395909490918990869060249082908a165afa94851561058d578c9561055a575b50825480950361051f5761ff001916610100179055600354865163a6c2af0160e01b8152808a01949094528a95949392919086908490602490829088165afa9283156105155790849187946104ee575b5060030154168061046757505083928392839251169054905af16103f36117cc565b5015610436575050505b7f642e58efcd0db9e3e5171b8f71a4655b98647c098a6aa596308df9e8037ecc098280a2600160008051602061191f8339815191525580f35b5162461bcd60e51b815291820152600d60248201526c1499599d5b990819985a5b1959609a1b604482015260649150fd5b9151865163a9059cbb60e01b815293166001600160a01b03169783019788526020880152909585938793508391829060400103925af19081156104e557506104b1575b50506103fd565b81813d83116104de575b6104c5818361157c565b81010312610135576104d69061159e565b5038806104aa565b503d6104bb565b513d86823e3d90fd5b600391945061050e903d808a833e610506818361157c565b810190611676565b93906103d1565b87513d88823e3d90fd5b875162461bcd60e51b8152808b018a9052601560248201527413db9b1e481c185e595c8818d85b8818d85b98d95b605a1b6044820152606490fd5b9094508881813d8311610586575b610572818361157c565b8101031261058257519338610381565b8b80fd5b503d610568565b88513d8e823e3d90fd5b855162461bcd60e51b81528089018890526014602482015273111958591b1a5b99481b9bdd081c995858da195960621b6044820152606490fd5b50600883901c60ff1615610331565b8380fd5b509190346109cd5760209081600319360112610135578335916106056118c2565b828452600181528184209060028201549061062182151561183e565b600683019687549760ff891615806109be575b61063d9061187d565b60035486516385f8dd8d60e01b815233848201526001600160a01b039a918590829060249082908f165afa9081156109b4578a91610983575b508654036109475760019060ff19161790558760035416876001860154602488518094819363a6c2af0160e01b8352878301525afa90811561093d578891610923575b506106d36127106106cb845487611796565b0480956117bf565b948960038201541680156000146107b3575050878080878c829551165af16106f96117cc565b5015610772575081867f1679e83f1a5c78898f99c2ad78c3681c0209a5d388b6cc90177b405b9269684a9697988261074e575b5050505b8351928352820152a2600160008051602061191f8339815191525580f35b818061076a948193600554165af16107646117cc565b506117fc565b81873861072c565b60649185519162461bcd60e51b8352820152601860248201527f5472616e7366657220746f207061796565206661696c656400000000000000006044820152fd5b9151875163a9059cbb60e01b8152908b166001600160a01b031684820190815260208101889052999a98998b93869183919082908790829060400103925af18015610919576108e5575b508461082f575b5050507f1679e83f1a5c78898f99c2ad78c3681c0209a5d388b6cc90177b405b9269684a9450610730565b60030154600554875163a9059cbb60e01b81526001600160a01b03918a169190911693810193845260208401869052978493899390849003604001928492165af180156108db57610883575b848781610804565b8085813d83116108d4575b610898818361157c565b810103126108d0576108ca7f1679e83f1a5c78898f99c2ad78c3681c0209a5d388b6cc90177b405b9269684a9561159e565b5061087b565b8680fd5b503d61088e565b84513d89823e3d90fd5b8481813d8311610912575b6108fa818361157c565b810103126101355761090b9061159e565b50386107fd565b503d6108f0565b88513d85823e3d90fd5b61093791503d808a833e610506818361157c565b386106b9565b86513d8a823e3d90fd5b865162461bcd60e51b815280840185905260166024820152754f6e6c792070617965722063616e2072656c6561736560501b6044820152606490fd5b90508481813d83116109ad575b61099a818361157c565b810103126109a9575138610676565b8980fd5b503d610990565b88513d8c823e3d90fd5b50600889901c60ff1615610634565b5080fd5b5050346109cd57816003193601126109cd5760055490516001600160a01b039091168152602090f35b5050346109cd57816003193601126109cd57905490516001600160a01b039091168152602090f35b5050346109cd57816003193601126109cd5760035490516001600160a01b039091168152602090f35b503461013557602036600319011261013557803591610a686118f2565b6101f48311610a7657505580f35b906020606492519162461bcd60e51b8352820152600c60248201526b08ccaca40e8dede40d0d2ced60a31b6044820152fd5b8334610b025780600319360112610b0257610ac16118f2565b80546001600160a01b03198116825581906001600160a01b03167f8be0079c531659141344cd1fd0a4f28419497f9722a3daafe3b4186f6b6457e08280a380f35b80fd5b5090606036600319011261013557813591610b1e611518565b60443592610b2a6118c2565b60035481516385f8dd8d60e01b81523381860152946001600160a01b039182169490916020916024838982818b5afa988915610edb578b99610feb575b508551636e9acd5560e11b8082528382018b905290858184818d5afa908115610fe1578d91610fa8575b5015610f665786519081528a83820152848183818c5afa908115610f5c578c91610f27575b5015610ee5578a8a828851809b819363a6c2af0160e01b8352878301525afa978815610edb578b98610ebf575b508a612710610bf3845488611796565b049784610c008a896117bf565b9116998a610ce357828092878293610c198c34146115ab565b51165af1610c256117cc565b5015610ca1575050917fed031bdcb6a6a05eb0d64eeb59e28fe3e9e5138b5bd41d23c3d9ca1375f81f37959391858a8195606098610c83575b5050505b8251948552840152820152a3600160008051602061191f8339815191525580f35b8180610c99948193600554165af16107646117cc565b838a38610c5e565b855162461bcd60e51b8152918201849052601c908201527f5472616e7366657220746f20726563697069656e74206661696c6564000000006044820152606490fd5b9150939198979695949834610e6957505185516323b872dd60e01b808252338583019081529284166001600160a01b03166020840152604083019590955290899082908e908290819060600103918c5af18015610e5f57610e2b575b5085610d76575b5050509060609392917fed031bdcb6a6a05eb0d64eeb59e28fe3e9e5138b5bd41d23c3d9ca1375f81f3795610c62565b600554855193845233928401928352166001600160a01b031660208201526040810185905286908290819060600103818c895af18015610e2157610dbc575b8080610d46565b939291908585813d8311610e1a575b610dd5818361157c565b81010312610e16577fed031bdcb6a6a05eb0d64eeb59e28fe3e9e5138b5bd41d23c3d9ca1375f81f3795610e0a60609661159e565b50955090919293610db5565b8880fd5b503d610dcb565b83513d8b823e3d90fd5b8881813d8311610e58575b610e40818361157c565b8101031261058257610e519061159e565b5038610d3f565b503d610e36565b86513d8e823e3d90fd5b83602c6084928c8a519362461bcd60e51b85528401528201527f4e61746976652076616c7565206e6f7420616363657074656420666f7220746f60448201526b6b656e207061796d656e747360a01b6064820152fd5b610ed49198503d808d833e610506818361157c565b9638610be3565b86513d8d823e3d90fd5b855162461bcd60e51b8152918201849052601a908201527f526563697069656e74206e6f7420616374697665206167656e740000000000006044820152606490fd5b90508481813d8311610f55575b610f3e818361157c565b8101031261058257610f4f9061159e565b38610bb6565b503d610f34565b87513d8e823e3d90fd5b865162461bcd60e51b81528084018690526017818401527f53656e646572206e6f7420616374697665206167656e740000000000000000006044820152606490fd5b90508581813d8311610fda575b610fbf818361157c565b81010312610fd657610fd09061159e565b38610b91565b8c80fd5b503d610fb5565b88513d8f823e3d90fd5b9098508381813d8311611017575b611003818361157c565b8101031261101357519738610b67565b8a80fd5b503d610ff9565b503461013557826003193601126101355760209250549051908152f35b50919060a03660031901126109cd578235611054611518565b92604435946110616118c2565b60035484516385f8dd8d60e01b815233838201526020976001600160a01b03979194919290919060249089168a878381845afa9687156114655783976114e9575b508851636e9acd5560e11b808252878201899052908c818581865afa9081156114df5785916114aa575b501561146f578b90838b518094819382528c8b8301525afa908115611465578391611430575b50156113f65760025460001981146113e45760010190816002558851918b83019081523360601b8a84015242605484015260548352608083019183831067ffffffffffffffff8411176113d3575088928b8b848f989795948c958352845190209e8f9a1693841560001461126e575050928899888694600797947f788c1556e7400828c91ecff46ca9b631ec00ec11ec9e468d18bd87a26d68b4ab9c9761119a8c34146115ab565b80519a8b966111a888611549565b8752848701908152818701918d83526060880194855288600160808a0197606435895261010060a08c019b6084358d5260c081019e8f5260e081019d8e52019d8e429052835252209b518c555160018c01555160028b015560038a019151166bffffffffffffffffffffffff60a01b825416179055519087015551600586015560068501915115159060ff61ff0084549251151560081b1692169061ffff191617179055519101558651908152a4600160008051602061191f8339815191525551908152f35b94509497505093509395503461137f57505087516323b872dd60e01b815233868201908152306020820152604081018690528b9082908190606001038187875af18015611375578a959389938b8e97948b946112f8575b50928899888694600797947f788c1556e7400828c91ecff46ca9b631ec00ec11ec9e468d18bd87a26d68b4ab9c9761119a565b949850509350939694905081813d831161136e575b611317818361157c565b8101031261136a5789857f788c1556e7400828c91ecff46ca9b631ec00ec11ec9e468d18bd87a26d68b4ab96898e9788859b988f988f9961135960079a61159e565b5094975094509496505099986112c5565b8480fd5b503d61130d565b89513d86823e3d90fd5b906a6b656e20657363726f777360a81b60e46084938e62461bcd60e51b855285820152602b60a48201527f4e61746976652076616c7565206e6f7420616363657074656420666f7220746f60c48201520152fd5b634e487b7160e01b85526041885284fd5b50634e487b7160e01b82526011855290fd5b8460166064928c8b519362461bcd60e51b85528401528201527514185e5959481b9bdd081858dd1a5d99481859d95b9d60521b6044820152fd5b90508a81813d831161145e575b611447818361157c565b81010312610135576114589061159e565b386110f2565b503d61143d565b89513d85823e3d90fd5b895162461bcd60e51b81528088018d90526016818501527514185e595c881b9bdd081858dd1a5d99481859d95b9d60521b6044820152606490fd5b90508c81813d83116114d8575b6114c1818361157c565b8101031261136a576114d29061159e565b386110cc565b503d6114b7565b8b513d87823e3d90fd5b9096508a81813d8311611511575b611501818361157c565b81010312610135575195386110a2565b503d6114f7565b602435906001600160a01b038216820361152e57565b600080fd5b600435906001600160a01b038216820361152e57565b610120810190811067ffffffffffffffff82111761156657604052565b634e487b7160e01b600052604160045260246000fd5b90601f8019910116810190811067ffffffffffffffff82111761156657604052565b5190811515820361152e57565b156115b257565b60405162461bcd60e51b815260206004820152601760248201527f496e636f7272656374206e617469766520616d6f756e740000000000000000006044820152606490fd5b67ffffffffffffffff811161156657601f01601f191660200190565b9080601f8301121561152e5781519061162b826115f7565b92611639604051948561157c565b8284526020916020848301011161152e5760005b8381106116635750505060206000918301015290565b818101830151858201840152820161164d565b602090818184031261152e57805167ffffffffffffffff9182821161152e57019160c08385031261152e576040519360c08501858110848211176115665760405283516001600160a01b038116810361152e5785528184015182860152604084015183811161152e57816116eb918601611613565b6040860152606084015183811161152e57840181601f8201121561152e57805193808511611566578460051b90604051956117288684018861157c565b865284808701928401019380851161152e57858401925b85841061177157505050505050509060a09160608401526117626080820161159e565b6080840152015160a082015290565b835183811161152e57879161178b848480948a0101611613565b81520193019261173f565b818102929181159184041417156117a957565b634e487b7160e01b600052601160045260246000fd5b919082039182116117a957565b3d156117f7573d906117dd826115f7565b916117eb604051938461157c565b82523d6000602084013e565b606090565b1561180357565b60405162461bcd60e51b8152602060048201526013602482015272119959481d1c985b9cd9995c8819985a5b1959606a1b6044820152606490fd5b1561184557565b60405162461bcd60e51b815260206004820152601060248201526f115cd8dc9bddc81b9bdd08199bdd5b9960821b6044820152606490fd5b1561188457565b60405162461bcd60e51b8152602060048201526016602482015275115cd8dc9bddc8185b1c9958591e481cd95d1d1b195960521b6044820152606490fd5b60008051602061191f83398151915260028154146118e05760029055565b604051633ee5aeb560e01b8152600490fd5b6000546001600160a01b0316330361190657565b60405163118cdaa760e01b8152336004820152602490fdfe9b779b17422d0df92223018b32b4d1fa46e071723d6817e2486d003becc55f00a2646970667358221220df4e5302b0b8306e18ddb1f6aed218c5462faa2d3f146f417c36a3d32f52da1764736f6c63430008180033",
  "linkReferences": {},
  "deployedLinkReferences": {}
}