{
  "_format": "hh-sol-artifact-1",
  "contractName": "SplitVault",
  "sourceName": "contracts/core/SplitVault.sol",
  "abi": [
    {
      "inputs": [],
      "name": "ReentrancyGuardReentrantCall",
      "type": "error"
    },
    {
      "anonymous": false,
      "inputs": [
        {
          "indexed": true,
          "internalType": "bytes32",
          "name": "splitId",
          "type": "bytes32"
        },
        {
          "indexed": true,
          "internalType": "bytes32",
          "name": "agentId",
          "type": "bytes32"
        },
        {
          "indexed": false,
          "internalType": "uint256",
          "name": "recipientCount",
          "type": "uint256"
        }
      ],
      "name": "SplitConfigured",
      "type": "event"
    },
    {
      "anonymous": false,
      "inputs": [
        {
          "indexed": true,
          "internalType": "bytes32",
          "name": "splitId",
          "type": "bytes32"
        }
      ],
      "name": "SplitDeactivated",
      "type": "event"
    },
    {
      "anonymous": false,
      "inputs": [
        {
          "indexed": true,
          "internalType": "bytes32",
          "name": "splitId",
          "type": "bytes32"
        },
        {
          "indexed": false,
          "internalType": "address",
          "name": "token",
          "type": "address"
        },
        {
          "indexed": false,
          "internalType": "uint256",
          "name": "totalAmount",
          "type": "uint256"
        }
      ],
      "name": "SplitDistributed",
      "type": "event"
    },
    {
      "inputs": [
        {
          "internalType": "bytes32",
          "name": "agentId",
          "type": "bytes32"
        },
        {
          "components": [
            {
              "internalType": "address",
              "name": "wallet",
              "type": "address"
            },
            {
              "internalType": "uint256",
              "name": "shareBps",
              "type": "uint256"
            }
          ],
          "internalType": "struct SplitVault.SplitRecipient[]",
          "name": "recipients",
          "type": "tuple[]"
        }
      ],
      "name": "configureSplit",
      "outputs": [
        {
          "internalType": "bytes32",
          "name": "",
          "type": "bytes32"
        }
      ],
      "stateMutability": "nonpayable",
      "type": "function"
    },
    {
      "inputs": [
        {
          "internalType": "bytes32",
          "name": "splitId",
          "type": "bytes32"
        }
      ],
      "name": "deactivateSplit",
      "outputs": [],
      "stateMutability": "nonpayable",
      "type": "function"
    },
    {
      "inputs": [
        {
          "internalType": "bytes32",
          "name": "splitId",
          "type": "bytes32"
        },
        {
          "internalType": "address",
          "name": "token",
          "type": "address"
        },
        {
          "internalType": "uint256",
          "name": "amount",
          "type": "uint256"
        }
      ],
      "name": "distribute",
      "outputs": [],
      "stateMutability": "payable",
      "type": "function"
    },
    {
      "inputs": [
        {
          "internalType": "bytes32",
          "name": "agentId",
          "type": "bytes32"
        }
      ],
      "name": "getSplitByAgent",
      "outputs": [
        {
          "internalType": "bytes32",
          "name": "",
          "type": "bytes32"
        }
      ],
      "stateMutability": "view",
      "type": "function"
    },
    {
      "inputs": [
        {
          "internalType": "bytes32",
          "name": "splitId",
          "type": "bytes32"
        }
      ],
      "name": "getSplitConfig",
      "outputs": [
        {
          "internalType": "bytes32",
          "name": "ownerAgentId",
          "type": "bytes32"
        },
        {
          "components": [
            {
              "internalType": "address",
              "name": "wallet",
              "type": "address"
            },
            {
              "internalType": "uint256",
              "name": "shareBps",
              "type": "uint256"
            }
          ],
          "internalType": "struct SplitVault.SplitRecipient[]",
          "name": "recipients",
          "type": "tuple[]"
        },
        {
          "internalType": "bool",
          "name": "active",
          "type": "bool"
        }
      ],
      "stateMutability": "view",
      "type": "function"
    }
  ],
  "bytecode": "0x6080806040523461003a5760017f9b779b17422d0df92223018b32b4d1fa46e071723d6817e2486d003becc55f0055610a2c90816100408239f35b600080fdfe6040608081526004908136101561001557600080fd5b600090813560e01c80635891fa361461089a57806359256644146105da5780636cfe6afe1461049f578063d91c42be146104735763f5470e2b1461005857600080fd5b606036600319011261046f576001600160a01b036024803582811695929383359387830361046b5760448035947f9b779b17422d0df92223018b32b4d1fa46e071723d6817e2486d003becc55f0097600289541461045b5798809a60029a8b8b558983526100d360ff88602095808752209d8e0154166108f7565b6001809c019182541561042a578061025e575088340361021d578c8c5b61014b575b50505050505050906101447f71e5d4585fac394d6d5998e838d02faf7ae5707730fd3f9723270b546d8522a593925b516001600160a01b03909216825260208201929092529081906040820190565b0390a25580f35b8d8d84548310156102165781806127106101748f839561016b898c610994565b500154906109cd565b0486610180878a610994565b5054165af13d15610211573d67ffffffffffffffff81116101fe578f8a51916101b288601f19601f840116018461095c565b8252863d92013e5b156101c7578c018c6100f0565b875162461bcd60e51b815280880185905260138187015272111a5cdd1c9a589d5d1a5bdb8819985a5b1959606a1b81880152606490fd5b50634e487b7160e01b8f5260418852858ffd5b6101ba565b50506100f5565b865162461bcd60e51b81528087018490526017818601527f496e636f7272656374206e617469766520616d6f756e7400000000000000000081870152606490fd5b959294909193346103d157899160648f9288938b5195869485936323b872dd60e01b8552338b86015230908501528301528a5af180156103c757908c95949392916103aa575b50909192938c905b6102e3575b505050505050906101447f71e5d4585fac394d6d5998e838d02faf7ae5707730fd3f9723270b546d8522a59392610124565b8c8c85548310156103a357610344916127106103058d8a9461016b888c610994565b049085610312868a610994565b5054168b5180958194829363a9059cbb60e01b84528b840160209093929193604081019460018060a01b031681520152565b03918b5af1801561039757918d969594939291879261036a575b500190919293946102ac565b61038990873d8911610390575b610381818361095c565b8101906109b0565b503861035e565b503d610377565b8e8951903d90823e3d90fd5b50506102b1565b6103c090853d871161039057610381818361095c565b50386102a4565b87513d8f823e3d90fd5b7f4e61746976652076616c7565206e6f7420616363657074656420666f7220746f60849260308693898c519562461bcd60e51b87528601528401528201526f35b2b7103234b9ba3934b13aba34b7b760811b6064820152fd5b875162461bcd60e51b8152808801859052600d818701526c4e6f20726563697069656e747360981b81880152606490fd5b8451633ee5aeb560e01b81528490fd5b8680fd5b5080fd5b50823461049b57602036600319011261049b5760209282913581526001845220549051908152f35b8280fd5b509190346105d7576020928360031936011261046f578235825281845280822091825460019560ff600260018701960154169285549667ffffffffffffffff978881116105c457869493929451986104fc848360051b018b61095c565b818a52838a0190819987528487209087925b84841061056f5750505050505084519660608801928852606082890152518092526080870195925b82811061054a578415158689015287870388f35b835180516001600160a01b031688528201518783015295850195928101928801610536565b8a98969798518b8101818110848211176105b1578c5283546001600160a01b031681528e84015489820152815295979695928d0192600290920191860161050e565b634e487b7160e01b895260418852602489fd5b634e487b7160e01b835260418252602483fd5b80fd5b503461046f578060031936011261046f578235602480359367ffffffffffffffff9586861161046f573660238701121561046f57858101359287841161049b57808701968136918660061b01011161049b578315158061088f575b1561084d5782805b858210610818576127109150036107d6576002549160001983146107c557600180930180600255875160209a8b82019283523360601b8a830152426054830152605482526080820190828210908211176107b3578952519020808552848a5287852087815560028101805460ff1916861790559098949589958b9591948a949293919291840190895b87811061070c5750505050509085859692887f77f65f1adaa500bd7307e54712180449de3257c60f8b42731d1cce8dc163779c979452855220558551908152a351908152f35b9295509295989750929550610722818987610936565b8354680100000000000000008110156107a15780886107449201865585610994565b9190916107905780356001600160a01b0381169081900361078c5782546001600160a01b0319161782558d01359087015595968a968c9691958b9592949093909185016106c6565b8980fd5b634e487b7160e01b89528886528389fd5b634e487b7160e01b8952604186528389fd5b634e487b7160e01b8752604184528487fd5b634e487b7160e01b84526011905282fd5b906018606492602088519362461bcd60e51b85528401528201527f536861726573206d7573742073756d20746f20313030303000000000000000006044820152fd5b602061082583888c610936565b0135810180911161083b5760019091019061063d565b634e487b7160e01b8552601184528285fd5b906017606492602088519362461bcd60e51b85528401528201527f496e76616c696420726563697069656e7420636f756e740000000000000000006044820152fd5b50600a841115610635565b50823461049b57602036600319011261049b5760029035918284528360205283200180546108ca60ff82166108f7565b60ff191690557f14739d148f3924925a9069c3ce4322bf1a761f3657ecbdfb7e83832a6f4696988280a280f35b156108fe57565b60405162461bcd60e51b815260206004820152601060248201526f53706c6974206e6f742061637469766560801b6044820152606490fd5b91908110156109465760061b0190565b634e487b7160e01b600052603260045260246000fd5b90601f8019910116810190811067ffffffffffffffff82111761097e57604052565b634e487b7160e01b600052604160045260246000fd5b80548210156109465760005260206000209060011b0190600090565b908160209103126109c8575180151581036109c85790565b600080fd5b818102929181159184041417156109e057565b634e487b7160e01b600052601160045260246000fdfea2646970667358221220d9e64405a8c3403dd12b2a290a74989b2cb298443db46bdca642f02bd966b95164736f6c63430008180033",
  "linkReferences": {},
  "deployedLinkReferences": {}
}